:100000000C941F020C94B00E0C9466020C946602C1
:100010000C9466020C9466020C9466020C946602C0
:100020000C9466020C9466020C94AE210C9480220F
:100030000C948A1C0C9466020C9466020C94660262
:100040000C9466020C9466020C9466020C94660290
:100050000C9466020C94E31C0C9466020C946602E9
:100060000C9466020C9466020C9466020C94660270
:100070000C9466020C9466020C9466020C94660260
:100080000C9466020C9466020C9466020C94660250
:100090000C9466020C9466020C9466020C94660240
:1000A0000C9466020C9466020C94660235123512AA
:1000B00067126712B412D212F313F313DD12721324
:1000C00083138313E313F313F313EC1393149314B5
:1000D000A514A5149C14A514A514A5149314931485
:1000E000A114A514A514A114ED2214230C24142387
:1000F0000C24602383230C24DA23E92329001E0027
:100100001F0020002100220023002B0014001A00F1
:100110000800150017002F00E0000400160007007B
:1001200009000A00170302551D001B0006001900F4
:10013000050000003900E3002B032B0101582C00BF
:10014000000000000000460029034D00E30000000D
:1001500024002500260027002D002E003500300049
:100160001C0018000C0012001300310002530B0099
:100170000D000E000F0033003400000011001000CD
:10018000360037003800125500002A0028005000C1
:10019000520051004F000000E3004E00E000E2007A
:1001A0000000000001003A003B003C003D003E0022
:1001B0003F000100010001005200010001000100A8
:1001C00001000100500051004F000100005C0100DF
:1001D000010001000100010001000000AD00AE00BF
:1001E000AC00AB00010001000000000000000100B5
:1001F00001000100010000004000410042004300F6
:10020000440045000100010001000100010001005F
:1002100001000100010001000100010001000100D6
:1002200001000000010001000100010001000100C7
:1002300000004C000100010001000100010000006D
:1002400001000100010001000000000001000100A8
:100250000100010001000100010001000100010096
:100260000100010001000100010001000100010086
:100270000100010001000100010001000100010076
:100280000100000001000100010001000100010067
:10029000000000000000010001000100010000005A
:1002A0000100010053000100560057000100010049
:1002B00001005F0060006100010001000100010019
:1002C0005C005D005E005500010000000100590067
:1002D0005A005B0054000100000001005800620059
:1002E00063000100010000000100010001000100A5
:1002F000000000002C0344006100630074007900DA
:100300006C002D004D0061006E00750066006F00EE
:1003100072006D00200028003500780037002900A9
:1003200000000E037400730068006F007200740018
:1003300000000403090409023B00020100A0FA09BD
:100340000400000103010100092111010001224004
:10035000000705810308000A0904010001030000E9
:1003600000092111010001227B0007058203200002
:100370000A12011001000000084D44373501000148
:1003800002000105010902A10185020901A1000580
:100390000919012908150025019508750181020533
:1003A00001093009311581257F95027508810609FB
:1003B000381581257F950175088106050C0A3802DC
:1003C0001581257F950175088106C0C0050109804A
:1003D000A101850319012AB700150126B70095016F
:1003E00075108100C0050C0901A101850419012ABD
:1003F000A002150126A002950175108100C005011B
:100400000906A101050719E029E71500250195084E
:10041000750181029501750881010507190029FF01
:10042000150026FF009506750881000508190129A9
:1004300005950575019102950175039101C011247F
:100440001FBECFEFDAE0DEBFCDBF04B603FE27C08C
:100450008091A2029091A302A091A402B091A50262
:100460008730904BA740B04BD1F41092A20210926B
:10047000A3021092A4021092A50214BE84B7877F33
:1004800084BF0FB6F894A89580916000886180932E
:100490006000109260000FBEE0E0F8E3099511E003
:1004A000A0E0B1E0E4E6F9E402C005900D92AC39B9
:1004B000B107D9F722E0ACE9B1E001C01D92A23A40
:1004C000B207E1F70E94E61E0C94B0240C940000E1
:1004D0000C94430581E0089581E008950C946C022A
:1004E00008950C9470021F93CF93DF9300D000D037
:1004F0001F92CDB7DEB749835A836B833091E001F9
:1005000089819A81311114C0662359F0222349F060
:100510000E94061A182F682F89819A810E94AF19AC
:1005200003C00E94DA19182F69817A81812F04C0D3
:100530000E94061A69817A810F900F900F900F9098
:100540000F90DF91CF911F910C942503FC01262F72
:10055000408151816281738184810C947302CF93B5
:10056000DF93EC0160E00E94A602BE01DF91CF9113
:100570000C9471020E943A1B811102C00E94E11B7F
:100580000C9468020C94410508950E9481140E9405
:10059000C4022FEF84E39CE0215080409040E1F7BB
:1005A00000C000000C944A1D0F931F93CF93DF935C
:1005B000EC0161E00E94A6028C01BE010E946E0265
:1005C000882349F1BE01C8010E94050C882319F156
:1005D000BE01C8010E94570C8823E9F0BE01C80182
:1005E0000E94820D8823B9F08A81882369F0011561
:1005F0008CE5180731F00F3D1C4531F40E94E11BDA
:100600000AC00E94C50207C0CE01DF91CF911F91A1
:100610000F910C946A0280E0DF91CF911F910F91AE
:10062000089508950C94110381E008950C94140327
:10063000CF93C82F0E9412038C2F0E941603CF91D4
:10064000089580E090E00895089524E5829FC00118
:100650001124FC0127E0729FE00DF11D1124E60F2B
:10066000F11DEE0FFF1FE450FF4F85919491089507
:10067000880F991FFC01EC50FD4F859194910895CE
:10068000CF93DF930E9425030E945804EC0181154B
:10069000904508F041C0C11580E4D80708F0D1C0EA
:1006A000C83ED10510F5C03ED10508F0FDC0C83ADE
:1006B000D10578F4C53AD10508F0A2C0C130D10502
:1006C00009F4F2C008F4EEC0C430D10508F0ECC063
:1006D000E9C0CF3BD10508F49BC0C03CD10508F46C
:1006E000E1C0CE01805C91099EC0C11590E2D9079E
:1006F00058F4C11521E0D20708F0D6C0CD3ED1058F
:1007000008F4D0C0D065D0C0C11580E3D80708F088
:100710008EC0CE019F7087C0C11595E5D90708F03E
:1007200043C0C11524E5D20708F0A2C0C11582E577
:10073000D80708F5C11591E5D90708F085C0CE01A5
:1007400074E0969587957A95E1F783709C2F937066
:1007500021E030E002C0220F331F9A95E2F73C6897
:10076000382BCF70C695C69580E2C89FE001112452
:10077000C22BD32B99C09E01237033278C2F8695D3
:100780008695C115D34508F064C0C1E0D0E002C031
:10079000CC0FDD1F2A95E2F720E2829FC0011124D1
:1007A000C82BD92BDC6880C0C11529E5D207A0F47D
:1007B000C11588E5D80708F060C0C11596E5D907CE
:1007C00008F070C08C2F0E94EC048F71C82FD0E00D
:1007D000DC2FCC27D06268C0C1152AE5D20708F407
:1007E00051C0CE0190568115904208F05BC08D2F0C
:1007F0008F710E94EC04DD27D0628F71D82B54C01A
:10080000C55AD0E0C65BDE4FC881D0E0D0644CC092
:10081000C85AD0E0CC0FDD1FC45EDE4F0990D881EE
:10082000C02DD46441C00E943803EC013DC0CE010C
:100830009927D3FF03C0EC01D86C36C0EC01D06C13
:1008400033C0DF70D06A30C0DC2FCC27C16FD06AD4
:100850002BC0C1E0D0E002C0CC0FDD1F2A95E2F72B
:1008600020E2829FC0011124C82BD92BDA681CC05A
:10087000DC2FCC27C46FD06A17C0DC2FCC27C06F09
:10088000D06A12C08C2F8F700E94EC0494E0D69531
:10089000C7959A95E1F7CF70D0E0DC2FCC27D069CF
:1008A000C82B02C0C0E0D0E0CE01DF91CF91089507
:1008B0008238910569F1B0F48133910509F46DC076
:1008C00048F48932910509F463C08A32910509F42C
:1008D00069C008958533910509F455C089339105A0
:1008E000B9F00895833E910569F138F4803E910591
:1008F000B1F0823E910509F10895863E9105A9F176
:10090000873E9105B9F1843E910509F064C023C08A
:100910002091930220FD4FC021FD4DC0089580918C
:10092000930280FD44C08091940280FF44C0809176
:10093000930284FD42C083EE4DC08091930282FFFA
:1009400038C0F5CF8091930282FD33C0809194022C
:1009500080FD31C0ECCF8091940281FF32C0809144
:10096000930284FD2AC087EE35C08091930283FFF5
:1009700026C0F5CF8091930283FD21C0809194021F
:1009800081FD1FC0ECCF8091930285FD1CC01DC06E
:100990008091930285FD19C016C08091930286FD57
:1009A00016C017C08091930286FD13C010C089E362
:1009B00011C082EE0FC080EE0DC080E00BC086EE4D
:1009C00009C084EE07C089E205C085E303C08AE25E
:1009D00001C081E390E008959091930292FF0DC0D1
:1009E000282F2871283019F4877F846006C0282FAB
:1009F0002471243011F48B7F886093FF0DC0282F61
:100A00002871283119F4877E846106C0282F24714B
:100A1000243111F48B7E88612091940220FF0DC057
:100A2000382F3871383019F4877F816006C0382F2D
:100A30003171313011F48E7F886021FF0DC0282F75
:100A40002871283119F4877E816106C0282F217111
:100A5000213111F48E7E886194FD877E0895E82F00
:100A6000F0E0E358FD4F80810895089580EA8A956B
:100A7000F1F7089500C008950C94360508950C947C
:100A80003E050C943F050C943E05F894E82FE29542
:100A9000EF70F0E031A1282F2F7081E090E001C0CD
:100AA000880F2A95EAF7982F9095932391A392A106
:100AB000892B82A3789408950895CF93DF930E94A1
:100AC000E2068091000180910001811102C096E050
:100AD00001C090E090938A0286E0891B809389028E
:100AE000C4E5D1E089910E94450581E0CA35D80767
:100AF000C9F7CDE4D1E089910E94450581E0C43574
:100B0000D807C9F7E1E7F2E0ADE7B2E08DE792E0A0
:100B100011921D928E179F07D9F786E00E948C06CE
:100B20000E94BA02DF91CF910C94EC060F931F93B1
:100B3000CF93DF9300D000D000D0CDB7DEB70E94B6
:100B4000C30660918A02882309F442C08E010F5FB8
:100B50001F4F86E0F80111928A95E9F7862F90E001
:100B6000B80183589D4F0E94BF0D811116C080911E
:100B70009E018F5F80939E01863030F1E091890263
:100B8000F0E0E358FD4FD801CE01079611921D9277
:100B9000A817B907D9F711E018C010929E01A091CB
:100BA0008902B0E0A358BD4FF8019E01295F3F4F75
:100BB00010E081919C91981711F08C9311E011969F
:100BC000E217F307B1F701C010E00E94C2020DC0A6
:100BD00070E063587D4F8091890290E083589D4F6B
:100BE0000E94E90D0E945C0510E0812F26960FB649
:100BF000F894DEBF0FBECDBFDF91CF911F910F9153
:100C000008958F929F92AF92BF92CF92DF92EF9210
:100C1000FF920F931F93CF93DF9384E5A82E81E07B
:100C2000B82EC1E7D2E09AE5E92E91E0F92E912C99
:100C300001E010E06501F5018081F894E82FE2956C
:100C4000EF70F0E021A18F70A80102C0440F551F82
:100C50008A95E2F7CA01922F982B91A392A18095D1
:100C6000892382A378940E943A05EDE4F1E020E024
:100C700030E0812C4191A42FA295AF70B0E0909606
:100C80008C9190E04F7002C0959587954A95E2F758
:100C900080FD07C0802F022E01C0880F0A94EAF75A
:100CA00001C080E0882A2F5F3F4F2730310511F7C0
:100CB0005FEFA51AB50AF60180810E9445050E94E2
:100CC0003C058881881619F0888281E001C080E0A7
:100CD000982A2196EA14FB0409F0ACCF60918A02AD
:100CE00070E063587D4F292D46E081E792E00E9435
:100CF0008D060E949605992011F081E090E0DF9129
:100D0000CF911F910F91FF90EF90DF90CF90BF9008
:100D1000AF909F908F9008950895FF920F931F9327
:100D2000CF93DF938C01F62ED72FC42F222349F0C7
:100D300081E08093A1010E94BC1C9093A00180934C
:100D40009F018091A1018823C1F080919F01909122
:100D5000A0010E94D41C069780F0EF2DFD2FD80132
:100D60004C2F50E0CD01801B910B841795071CF48C
:100D70008D918193F7CF1092A101DF91CF911F91B7
:100D80000F91FF9008958091A201811112C080916E
:100D9000D80080618093D8008AE18A95F1F700C07D
:100DA0008091D90080FD02C082E001C081E0809383
:100DB000A20181E09091A201913009F080E00895B4
:100DC0000C94C3060E94E006809300010E94C306B3
:100DD00081110C94B30D08950E94C306811102C0C5
:100DE0000C94B90D0895833081F128F4813059F0C5
:100DF0008230D1F00895853009F449C0B8F18630C9
:100E000009F456C008958091A601262F30E0280FDE
:100E1000311D2F3F310524F4680F6093A60108951A
:100E20008FEF8093A601089580910601262F30E070
:100E3000280F311D2F3F310524F4680F6093060100
:100E400008958FEF80930601089580910501262F64
:100E500030E0280F311D2F3F310524F4680F6093D7
:100E6000050108958FEF8093050108958091040195
:100E7000262F30E0280F311D2F3F310524F4680F55
:100E80006093040108958FEF809304010895809189
:100E90000201262F30E0280F311D2F3F310524F4A9
:100EA000680F6093020108958FEF80930201089507
:100EB00080910101262F30E0280F311D2F3F310591
:100EC00024F4680F6093010108958FEF809301016E
:100ED0000895833011F128F4813049F0823091F087
:100EE0000895853081F120F18630C1F10895809117
:100EF000A601681720F4861B8093A601089510921E
:100F0000A601089580910601681720F4861B80933E
:100F10000601089510920601089580910501681751
:100F200020F4861B80930501089510920501089511
:100F300080910401681720F4861B809304010895B2
:100F400010920401089580910201681720F4861B15
:100F50008093020108951092020108958091010189
:100F6000681720F4861B80930101089510920101F7
:100F700008950F931F9341E050E060E070E08A0114
:100F80009B0104C0000F111F221F331F8A95D2F747
:100F9000C901B8010E94B1181F910F910C948114DE
:100FA0008B3109F468C058F58B3009F486C078F4A9
:100FB000863009F445C020F4853009F44BC07FC069
:100FC000873009F44AC0883009F477C078C080318E
:100FD00009F464C068F48E3009F071C08091650234
:100FE00082FB222720F991E0922790FB82F94CC0E6
:100FF000863109F462C0893109F45FC060C08A3269
:10100000E1F060F4873209F455C028F48E3108F419
:1010100056C08D5150C08932E9F051C0833450F42C
:101020008A3308F045C0853309F444C0883309F495
:1010300044C045C08334F1F142C00E94E11B3DC071
:1010400080916502817F8E7F8093650281E080932D
:10105000A40108950E94C50230C080916502982FB6
:101060009095917090FB80F980936502911125C055
:10107000897F877F10C08091650281FB222720F93C
:1010800091E0922790FB81F9809365029923A9F062
:10109000809165028160809365020FC08091650236
:1010A00083FB222720F991E0922790FB83F9ECCF74
:1010B000895301C080E00E94B90781E0089580E073
:1010C000089580E008950C9461088E518A3030F4C0
:1010D000E82FF0E0E05AFE4F8081089580E0089507
:1010E000CF93C82F8091A401813051F018F0823045
:1010F00099F17BC00E94871A823209F078C004C03F
:101100000E94871A823261F48C2F0E946308811139
:1011100004C08C2F0E94D0071DC081E090E01AC04F
:101120008C2F0E946108811114C0C43179F048F4F9
:10113000CB3079F0C03109F05EC082E08093A40129
:1011400008C0C93219F0C83321F055C01092A4016B
:1011500052C081E0817051C0C93279F108F5C431C3
:1011600061F1A0F4C73009F044C01092A60184E1F7
:1011700080930601C09305018CE38093040188E00D
:101180008093020188E28093010133C082EE8C0FCC
:10119000863078F58C2F0E9465088093A30129C0C2
:1011A000CE34E9F020F4CB3421F56AE013C0C13528
:1011B00079F0C235F1F461E00DC08091A30188237C
:1011C00019F01092A30115C081E08093A40115C00D
:1011D00061E006C08091A3010E94F3060AC06AE0A4
:1011E0008091A3010E94690704C01092A40180E0CD
:1011F00004C081E002C080E0ADCFCF91089580911E
:10120000AD0180FF0BC06091050185E0689FB001D2
:10121000112475956795759567952BC081FF09C059
:101220006091050185E0689FB0011124759567956F
:1012300020C082FF07C06091050185E0689FB00172
:10124000112417C09091AC019923D1F06091040151
:10125000961788F72091050185E0289F90011124B9
:10126000929FA001939F500D112470E0CA010E942B
:1012700040246038710540F46115710519F406C009
:1012800065E070E0862F08958FE7089581E0089566
:101290008091AD0180FF08C06091020170E07595FA
:1012A00067957595679521C081FF06C06091020121
:1012B00070E07595679519C082FF04C060910201C6
:1012C00070E010C09091AB01992399F060910101F9
:1012D0009617A0F780910201899FC001112470E048
:1012E0000E9440246038710540F46115710519F4BD
:1012F00006C061E070E0862F08958FE7089581E0D1
:1013000008958D3E21F40E94FF08819504C08E3E11
:1013100029F40E94FF088093B10108958F3E21F4C3
:101320000E94FF08819504C0803F29F40E94FF08B5
:101330008093B0010895893F19F40E94480905C0BF
:101340008A3F31F40E94480981958093B201089543
:101350008B3F21F40E944809819504C08C3F29F4F9
:101360000E9448098093B30108959FE0980F983038
:1013700078F421E030E0A90102C0440F551F9A958E
:10138000E2F7CA019091AF01892B8093AF010895D4
:101390008D3F21F48091AD0181600BC08E3F21F41F
:1013A0008091AD01826005C08F3F29F48091AD012D
:1013B00084608093AD0108958D3E39F49091B10120
:1013C00097FF35C01092B10159C08E3E29F490911B
:1013D000B1011916BCF32BC09091B0018F3E29F4D6
:1013E00097FF25C01092B00149C0803F19F419162B
:1013F000CCF31DC09091B201893F29F41916BCF4B9
:101400001092B2013BC08A3F19F497FF10C0F8CF89
:101410008B3F39F49091B30197FF09C01092B3014B
:101420002DC08C3F21F49091B3011916BCF39FE0BD
:10143000980F983080F421E030E0A90102C0440FF9
:10144000551F9A95E2F7CA0180959091AF018923C3
:101450008093AF0113C08D3F21F48091AD018E7F49
:101460000BC08E3F21F48091AD018D7F05C08F3F71
:1014700029F48091AD018B7F8093AD018091B00103
:10148000811106C08091B101811102C01092AC019E
:101490008091B201811106C08091B301811102C017
:1014A0001092AB0108950E94BC1C2091B001211143
:1014B00004C02091B101222321F09093AA018093CE
:1014C000A9012091B201211104C02091B30122236E
:1014D00021F09093A8018093A7018EEA91E00C94EB
:1014E0006A0FEF92FF920F931F93CF93DF9300D079
:1014F00000D000D0CDB7DEB786E0EEEAF1E0DE0145
:10150000119601900D928A95E1F7E090B001F0906C
:10151000B1010091B2011091B3011092B00110928B
:10152000B1011092B2011092B301E11003C0FF208B
:1015300009F45DC08091A9019091AA010E94D41C78
:10154000AC019091AC01992339F02091060130E073
:101550002417350758F04BC02091A6018AE0289F38
:10156000900111242417350718F041C09F3F19F04E
:101570009F5F9093AC01EE2061F00E94FF081E1463
:1015800014F09FEF01C091E0989F902D112490934B
:10159000B001FF2061F00E94FF081F1414F09FEFBC
:1015A00001C091E0989F902D11249093B10130914A
:1015B000B0013323E1F02091B1012223C1F045EBCA
:1015C0003403C0011124992319F09093B00103C092
:1015D00081E08093B00135EB2303C00111249923EE
:1015E00019F09093B10103C081E08093B101011122
:1015F00003C0112309F45DC08091A7019091A80157
:101600000E94D41CAC019091AB01992339F0209138
:10161000030130E02417350758F04BC02091A50195
:101620008AE0289F900111242417350718F041C043
:101630009F3F19F09F5F9093AB01002361F00E94E0
:101640004809101614F09FEF01C091E0989F902D6B
:1016500011249093B201112361F00E9448091116E0
:1016600014F09FEF01C091E0989F902D112490936A
:10167000B3013091B2013323E1F02091B301222371
:10168000C1F045EB3403C0011124992319F0909364
:10169000B20103C081E08093B20135EB2303C001A6
:1016A0001124992319F09093B30103C081E0809332
:1016B000B3018091B00181110BC08091B101811102
:1016C00007C08091B201811103C08091B3018111E3
:1016D0000E94530AEB82FC820D831E8386E0FE018A
:1016E0003196AEEAB1E001900D928A95E1F7269627
:1016F0000FB6F894DEBF0FBECDBFDF91CF911F9123
:101700000F91FF90EF900895EEEAF1E086E0DF019F
:101710001D928A95E9F71092AC011092AB011092DC
:10172000AD0108950F931F93CF93DF93C42FD22F52
:10173000FC0182818823C9F04093B6010E94BC1C41
:101740009093B5018093B40180E28C0F883008F04B
:1017500057C0C77081E001C0880FCA95EAF7DF91D2
:10176000CF911F910F910C94F4118091B601481301
:1017700030C08091B4019091B5010E94D41C883C86
:10178000910538F510E21D0FCD17B9F080E28C0FEE
:10179000883040F4C77081E001C0880FCA95EAF72D
:1017A0000E94FB11183028F581E09D2F977001C031
:1017B000880F9A95EAF70E94F411802F0E94EB118E
:1017C0001830F0F4D77081E001C0880FDA95EAF79D
:1017D0000AC080E28C0F883098F4C77081E001C0A5
:1017E000880FCA95EAF7DF91CF911F910F910C9462
:1017F000FB11802FDF91CF911F910F910C94EB1172
:10180000DF91CF911F910F9108950F939C01CB0110
:10181000243F4CE5340731F188F4293DFCE53F07CE
:10182000D9F02A3D4CE5340779F1283D3C45A9F52E
:1018300006E221EE41EE68ED7CE52BC0263FFCE59B
:101840003F07E1F0A8F0273F3C4539F507E225EED8
:1018500046EE67EF7CE51DC007E225EE45EE69ED3B
:101860007CE517C006E221EE40EE64EF7CE511C096
:1018700007E225EE44EE65EF7CE50BC006E221EEC3
:1018800042EE66EF7CE505C008E221E045EE6AED38
:101890007CE50E94920B80E008C0FC0182818823D5
:1018A00019F01092B60101C081E00F910895CF9315
:1018B000DF93EC01FB018281882309F41FC1C23050
:1018C000FCE5DF0708F41BC1C6319CE5D90738F0F9
:1018D0009E012B5F3C452930310508F010C10E9464
:1018E0004D1B9093940280939302C031ECE5DE0788
:1018F00009F4C3C008F041C0C8308CE5D80709F42A
:101900009AC0F0F4C430ECE5DE0709F487C068F44F
:10191000C2308CE5D80709F477C0C330DC4509F044
:10192000E3C080919302826076C0C630ECE5DE07AA
:1019300009F46EC008F07BC08091930288606BC090
:10194000CC308CE5D80709F485C068F4CA30ECE5E2
:10195000DE0709F474C008F079C00E9481148091F8
:101960009302806858C0CE308CE5D80709F476C061
:1019700008F07FC0809193028BC0CC3FECE5DE077E
:1019800009F44FC018F5C3318CE5D80709F47DC0C0
:1019900078F4C131ECE5DE0709F473C0C231DC45EF
:1019A00009F0A2C00E948114809193028F7733C006
:1019B000C5318CE5D80709F472C008F486C0CB3F66
:1019C000DC4509F091C0809194023EC0C115FDE54F
:1019D000DF0709F45FC058F4CE3F9CE5D90709F44E
:1019E00044C008F43FC08091940282602DC0C23090
:1019F000FDE5DF0709F475C008F45DC0C330DD45BF
:101A000009F072C080E06EC080919302816003C0D3
:101A10008091930280618093930266C080919302CB
:101A200011C0809194028260809394025DC0809185
:101A300093028062F0CF809193028064ECCF80911A
:101A4000930288608460E7CF8160EECF809193023B
:101A50008E7FE1CF809193028D7FDDCF80919302C5
:101A6000877FD9CF8091940218C0809194028D7F96
:101A7000DBCF809193028F7ECECF809193028F7DBA
:101A8000CACF809193028F7BC6CF80919302877FCC
:101A90008B7FC1CF809194028D7F8E7FC5CF809147
:101AA000930282FB222720F991E0922790FB82F992
:101AB00090FB83F9B0CF80919402982F909591700C
:101AC0008E7F892B90FB81F9AFCF0E94811480918A
:101AD000930287FB222720F991E0922790FB87F958
:101AE0009ACF81E00E94E31B80919302909194022F
:101AF0000E945E1B0E94811480E001C081E0DF91A2
:101B0000CF910895CF93DF9386319C4541F5EB014A
:101B10000E94871A982F8A8120910F01309110011D
:101B2000882379F09A7A81E009F480E08093B70104
:101B3000911102C069E201C065E3C9010E942A1C3B
:101B40000AC08091B701811102C069E201C065E35A
:101B5000C9010E942C1C0E94D51A80E001C081E0BE
:101B6000DF91CF91089561E070E087E091E00C94FF
:101B7000620E61E070E087E091E00C94690ECF9313
:101B8000DF93D62FC72F0E94010F892BF1F4ED2F81
:101B9000FC2F80E090E0DC01A354BE4F2C912193F8
:101BA000019686309105B9F70E942F1DDC01CB010B
:101BB0000296A11DB11D8093B9019093BA01A09323
:101BC000BB01B093BC0181E001C080E0DF91CF9107
:101BD0000895CF93DF93D62FC72F6091B9017091ED
:101BE000BA018091BB019091BC010E94121DED2FA2
:101BF000FC2F80E090E02191DC01A354BE4F2C9398
:101C0000019686309105B9F7DF91CF9108958EE165
:101C1000489B02C08150E1F7489BFECF0895589839
:101C200080E28A95F1F7589A0895FC012AE02A95F6
:101C3000F1F728E090E080E031E040E14A95F1F7EB
:101C4000880F489B02C08160932700C0000040E1DC
:101C50004A95F1F7215089F720E12A95F1F729B14A
:101C600000C0000030E13A95F1F721709227208101
:101C7000920F90830895EF92FF920F931F93CF934B
:101C8000DF931F92CDB7DEB719828C017C01E60E7F
:101C9000F11C0E151F0551F00E94070ECE01019692
:101CA0000E94150EF80181938F01F3CF81E0998195
:101CB000911180E00F90DF91CF911F910F91FF90D4
:101CC000EF9008959093C4018093C301509A589A5D
:101CD00008959093C4018093C3015098589AE89A4C
:101CE000E9E6F0E080818C7F80830895615091E087
:101CF00001C0990F6A95EAF720E031E0992361F07D
:101D0000492F482319F0589A232701C0589840E2D8
:101D10004A95F1F79695F2CF222311F0589A01C017
:101D2000589880E28A95F1F758980895FF920F939A
:101D30001F93CF93DF93EC018C01060F111DC01789
:101D4000D10741F0F9900E940F0E68E08F2D0E949C
:101D5000760EF5CFDF91CF911F910F91FF900895EF
:101D60001F920F920FB60F9211242F933F934F9310
:101D70005F936F937F938F939F93AF93BF93CF9313
:101D8000DF93EF93FF935898509AC091C301D0917D
:101D9000C4016D81662321F08E819F810E94960E81
:101DA0000E940F0E80E18A95F1F758985098589A42
:101DB00080E18A95F1F76A81662351F08B819C81DD
:101DC0000E943B0EE881F981811104C082E003C0CA
:101DD000E881F98188E080830E94070EFF91EF91EE
:101DE000DF91CF91BF91AF919F918F917F916F9133
:101DF0005F914F913F912F910F900FBE0F901F90C9
:101E00001895CF93DF93C091C301D091C401F8948A
:101E1000509A589885E08A95F1F700005098589AA2
:101E200080E28A95F1F7489B0AC0509A589AE88157
:101E3000F98181E08083789481E090E02CC06D810D
:101E4000662381F08E819F810E943B0E81110AC022
:101E5000509A589AE881F98182E08083789482E0F0
:101E600090E019C00E94070E80E28A95F1F7589819
:101E7000509A80E18A95F1F76A81662321F08B817F
:101E80009C810E94960E0E940F0EE881F9811082BB
:101E9000789480E090E0DF91CF9108959093CA010B
:101EA0008093C9010895E091C901F091CA0130976A
:101EB00021F00190F081E02D099480E00895E091F7
:101EC000C901F091CA01309721F00280F381E02D21
:101ED00009940895E091C901F091CA01309739F051
:101EE00022E0DC012C930480F581E02D0994089513
:101EF0002091C7013091C8012817390771F09093DC
:101F0000C8018093C701E091C901F091CA013097DF
:101F100021F00680F781E02D099408952091C501F4
:101F20003091C6012817390771F09093C60180934C
:101F3000C501E091C901F091CA01309721F00084F8
:101F4000F185E02D099408950E94C81C6093DC017E
:101F50007093DD018093DE019093DF016093D801DF
:101F60007093D9018093DA019093DB01089585B7CE
:101F7000806885BF85B7806885BF08950C94C306C7
:101F800008950C94C00F0C94C00F0C94C30F0C94C4
:101F9000C00F0C94C70F0C94C00F0E94B70F88E3BA
:101FA0009BE10E945B1D0E94CB0F0C94C90F0E9405
:101FB000B31C0E94091D0E945D050E94601D0C94C7
:101FC000C50F9F92AF92BF92CF92DF92EF92FF9296
:101FD0000F931F93CF93DF93CDB7DEB72A970FB63A
:101FE000F894DEBF0FBECDBF0E94C10F0E94C00F8C
:101FF0000E94010681110E94A40F8CECA82E81E0A2
:10200000B82E00E010E0902E802F0E942F05D82ED1
:10201000F501C1905F01C826B1F40F5F1F4F0C306E
:10202000110589F78FEF89838A831B820E94BC1C6C
:102030008160782F9D838C8349815A816B818D814A
:102040000E9483102FC08091650281FD0E9435059A
:10205000E12CFF24F3948C2D8F21F1F00E94BE0F10
:10206000882399F0EE829F82DF2081E009F480E0EE
:1020700088870E94BC1C8160782F9A8789874E814F
:102080005F8168858A850E948310F801E453FE4FC2
:102090008081F826F08206C0E394FF0CF7E0EF128F
:1020A000DACFBBCF0E94710A0E94530F9091CB01EF
:1020B0008917B9F00E94530F8093CB012A960FB66F
:1020C000F894DEBF0FBECDBFDF91CF911F910F916E
:1020D000FF90EF90DF90CF90BF90AF909F900C94C7
:1020E00018032A960FB6F894DEBF0FBECDBFDF915E
:1020F000CF911F910F91FF90EF90DF90CF90BF9005
:10210000AF909F900895DF92EF92FF920F931F93ED
:10211000CF93DF93CDB7DEB72B970FB6F894DEBF22
:102120000FBECDBFF42E052F162FE72ED82E61112E
:102130000E94A71AFE01319686E0DF011D928A9562
:10214000E9F77E2D4F2D502F612F8D2D9E810E94FE
:1021500074172B960FB6F894DEBF0FBECDBFDF917C
:10216000CF911F910F91FF90EF90DF900895FC01A8
:10217000808191810E94481A0895CF93882309F4A1
:10218000A9C0C82F8238C1F40E94530F81FDA2C09C
:1021900069E380910F01909110010E942A1C0E9416
:1021A000D51A2FEF81EE94E0215080409040E1F766
:1021B00000C0000069E319C0833801F50E94530F85
:1021C00080FD88C063E580910F01909110010E940D
:1021D0002A1C0E94D51A2FEF81EE94E021508040F6
:1021E0009040E1F700C0000063E580910F019091FD
:1021F00010010E942C1CCF910C94D51A8438C1F484
:102200000E94530F82FD66C067E480910F01909198
:1022100010010E942A1C0E94D51A2FEF81EE94E033
:10222000215080409040E1F700C0000067E4DDCF1E
:102230008CEF8C0F813AF8F48C2F0E94700881117A
:1022400049C06C2F80910F01909110010E94F41BE6
:10225000882349F06C2F80910F01909110010E940A
:102260002C1C0E94D51A6C2F80910F0190911001A7
:102270000E942A1CC0CF80E28C0F883048F4C770BF
:1022800081E001C0880FCA95EAF70E948A1AB3CF8D
:10229000EBE5EC0FE33040F4F0E0E856FE4F8081D0
:1022A00090E0CF910C94780FE8E5EC0FE73150F413
:1022B000F0E0EE0FFF1FE659FE4F80819181CF9134
:1022C0000C948E0FCD3E30F08C2F0E948109CF915F
:1022D0000C94530ACF910895882309F464C082387E
:1022E00079F40E94530F81FF5EC069E380910F0172
:1022F000909110010E942A1C0E94D51A69E310C017
:102300008338B1F40E94530F80FF4DC063E5809184
:102310000F01909110010E942A1C0E94D51A63E5BA
:1023200080910F01909110010E942C1C0C94D51AE1
:10233000843879F40E94530F82FF35C067E480919E
:102340000F01909110010E942A1C0E94D51A67E487
:10235000E7CF9CEF980F913A10F4682FE1CF90E20D
:10236000980F983050F4877091E001C0990F8A95CA
:10237000EAF7892F0E94901AD9CF9BE5980F9330E6
:1023800020F480E090E00C94780F98E5980F973156
:1023900020F480E090E00C948E0F8D3E20F00E949F
:1023A000DC090C94530A08951F93CF93DF93182FE1
:1023B000EB010E94BD10209741F08FE99FE001974B
:1023C000F1F700C000002197F6CF812FDF91CF9168
:1023D0001F910C946C11893319F060E070E002C019
:1023E00060E570E00C94D411882321F00E948A1AD1
:1023F0000C94D51A0895882321F00E94901A0C9409
:10240000D51A0895CF92DF92EF92FF920F931F9308
:10241000CF93DF937C01062FC72FFC01D28115815A
:1024200012951F700E94801A882399F0DD2389F08D
:102430008C2F807F803421F080E2800F883048F03C
:1024400082E00E941F1B0E94801A91E0D82ED9269C
:1024500001C0D12CCC2EC2948FE0C8228C2D90E0EC
:10246000FC01EA5AFF4F0C9454248C2F807FCF70CC
:10247000882311F0C295C07FDD2399F0CC2309F4A5
:102480008DC180E2800F883010F0011104C08C2FC4
:102490000E948A1A03C08C2F0E949A1A0E94D51A91
:1024A0007DC1802F0E946C11CC2309F49CC180E275
:1024B000800F883010F0011104C08C2F0E94901AF8
:1024C00003C08C2F0E94A01A0E94D51A8CC18C2F99
:1024D000807FCF70803211F0C295C07F002319F049
:1024E0000130C9F022C0DD2371F0112341F0113019
:1024F00031F40E94BA1A8C2B0E94C21A74C10E9435
:10250000BA1A8C2B1DC0112319F0113009F46BC1BC
:102510000E94CB1A25C0DD2321F0163008F063C1DC
:102520000EC0153008F05FC11BC0DD2361F0112320
:1025300031F0F701858180FF31C18F7085838C2F49
:102540000E94F41150C1112359F0093309F037C129
:10255000FFEF27EE83E0F15020408040E1F72DC1EE
:102560008C2F0E94FB113FC18C2F8695869583701E
:1025700019F0813061F037C1DD2321F0802F9C2FCD
:10258000937002C080E090E00E94780F34C1DD2398
:1025900021F0802F9C2F937002C080E090E00E9479
:1025A0008E0F29C1802FDD2319F00E94810902C0FE
:1025B0000E94DC090E94530A1EC18C2F837009F00F
:1025C00045C0D11114C1402F429546954770440F24
:1025D000440F602F6F70862F90E0A0E0B0E0042ED3
:1025E00004C0880F991FAA1FBB1F0A94D2F704FFCB
:1025F00010C00FE010E020E030E004C0000F111F19
:10260000221F331F4A95D2F70095109520953095DB
:1026100003C000E010E09801C695C695C370BC01E8
:10262000CD01602B712B822B932BC23049F058F4D3
:10263000C13019F00E94C518DAC00E94B318D7C083
:102640000E94D718D4C00E94B118D1C0DD2319F060
:102650008C2F817001C08695882309F4C8C0402F53
:10266000429546954770440F440F602F6F70862F38
:1026700090E0A0E0B0E0042E04C0880F991FAA1FCC
:10268000BB1F0A94D2F704FF10C00FE010E020E057
:1026900030E004C0000F111F221F331F4A95D2F7EC
:1026A000009510952095309503C000E010E098014A
:1026B000C695C695C370BC01CD01602B712B822BD2
:1026C000932BC23049F058F4C13019F00E948A1996
:1026D0008EC00E9478198BC00E949C1988C00E94ED
:1026E000EB1885C0CF70DD2339F08C2F0E941119B3
:1026F000802F0E94F4117BC0802F0E94FB118C2F31
:102700000E94321974C0023F01F128F4003F41F0E9
:10271000013FA1F03FC0033FF9F0043F39F13AC057
:10272000DD2341F0153008F05EC08C2F8F710E94C0
:10273000571959C0163008F056C0F7CFDD2339F0CD
:102740008C2F8F710E9411194EC0DD23C9F38C2F7D
:102750008F710E94321947C0DD2329F08C2F8F71B1
:102760000E94FC1840C00E94F7183DC0DD2349F0CC
:10277000CF718C2F0E94111963E08C2F0E940A1BCD
:1027800032C081E00E941F1B123068F182E00E947B
:102790001F1B29C0DD2331F0112391F2802F0E94ED
:1027A000BD1021C0112399F2093349F49FEFE7EEE0
:1027B000F3E09150E040F040E1F700C00000802FCE
:1027C0000E946C1110C04C2F4F70602FC7010E94E7
:1027D00021030E9422180FC04C2F4F70602FC70199
:1027E0000E94240308C088EF8C0D843020F40E94DE
:1027F000530F0E941803DD20C9F00E947C1A80FD4F
:1028000015C0F70112820E94761A0E941119C701A1
:102810000E9437140E94761ADF91CF911F910F9179
:10282000FF90EF90DF90CF900C943219DF91CF9111
:102830001F910F91FF90EF90DF90CF9008950F932D
:102840001F93CF93DF93EC01688179818A810E9485
:10285000531A8C010E94AE190E949F18B801CE0134
:102860000E940212DF91CF911F910F910895CF9393
:10287000DF93EC01988189812B813C81232B31F0FE
:102880008F3F31F481E09F3F19F403C081E001C024
:1028900080E080FD19C0CE010E94D40281110CC0DD
:1028A0000E94801A882381F08A81882369F082E05F
:1028B000DF91CF910C941F1BCE010E941F14CE01FB
:1028C000DF91CF910C94AF02DF91CF91089580E01A
:1028D00090E00E94780F80E090E00E948E0F0E94AE
:1028E000A71A0E94B71A0E94D51A0E94840B0C9452
:1028F000530A80910F01909110010E942E1C0C949C
:1029000067140E94971A0C947914E92FE295EF70DE
:102910004E2F50E0FA013297EE30F105B0F4EA594B
:10292000FF4F0C945424803F91F018F4883E68F4D3
:102930000EC0843F51F40BC0883E48F0813F29F41B
:1029400006C093FB882780F9089580E0089581E010
:1029500008950E94481A0E9485140895CF93DF932A
:1029600000D000D01F92CDB7DEB70F900F900F9020
:102970000F900F90DF91CF910895CF93DF9300D008
:1029800000D000D0CDB7DEB726960FB6F894DEBFE4
:102990000FBECDBFDF91CF9108951F93CF93DF93EB
:1029A000C091E10116E08091E201C81799F0D0E0F2
:1029B0001C9FF0011D9FF00D1124ED51FE4F408131
:1029C000518162817381848195810E94BD14219619
:1029D000C770E9CFDF91CF911F9108954091130205
:1029E00050911402609115027091160280911702A5
:1029F000909118020C94BD142091E1019091E20194
:102A000056E02917A9F030E0529FF001539FF00DD6
:102A10001124ED51FE4F7181761306C07081781339
:102A200003C07281741306C02F5F3F4F2770E9CF38
:102A300080E0089581E008950F931F93CF93DF9373
:102A40008091180282958F7009F05DC08091150207
:102A5000882309F458C08091E1011091E20160914E
:102A6000130270911402C0911602D091170291E0E6
:102A70006F3F09F090E0292F06E0811709F443C069
:102A8000209721F07F3F21F030E003C031E001C00A
:102A9000322F90E030FD34C0089FF001099FF00D07
:102AA0001124DF01AD51BE4F11963C9111973713A0
:102AB00027C03C91361324C012963C9112973111D5
:102AC0001FC013964D915C9114974C1B5D0B483CB5
:102AD0005105B0F4809118028F70806180931802C4
:102AE000E851FE4F80818F708061808383E192E0A6
:102AF0000E943714DF91CF911F910F910C94CD1448
:102B000001968770BACFDF91CF911F910F910895F1
:102B10008F929F92AF92BF92CF92DF92EF92FF92ED
:102B20000F931F93CF93DF93CDB7DEB761970FB6A7
:102B3000F894DEBF0FBECDBF8C0185E0F801DE0149
:102B40001D9601900D928A95E1F7D801DC901196BF
:102B5000EC9011971296CC90909113022091140250
:102B600040911602509117024115510531F02F3F47
:102B700031F481E09F3F19F403C081E001C080E09F
:102B800080FD81C1F8018380948083E1A82E82E0DA
:102B9000B82EF0901502B401641B750BFF2009F4E8
:102BA00018C180911802382F307F683C710508F0F9
:102BB000D1C031118AC0E21214C0D91212C0FC2C4B
:102BC000C1100FC08F708061809318020E94EE14B4
:102BD000C5010E94371480911802D80115968C9374
:102BE0006FC18114910439F0BFEFEB1206C081E090
:102BF000DB1203C003C081E001C080E080FD03C0A0
:102C000081E08C2502C080E090E080FF10C04C2D58
:102C10006E2D8D2D0E94FC14882349F083E192E0F3
:102C20000E943714E3E1F2E086E0DF01A4C08928C6
:102C300039F0BFEFEB1206C081E0DB1203C003C026
:102C400081E001C080E080FD03C081E08C2502C0EE
:102C500080E090E0E82FE170BE2E80FF2CC04C2D6C
:102C60006E2D8D2D0E94FC14F82E811124C0DD865E
:102C7000EE868D859E850E94481A292F22952F70F9
:102C8000223018F0243090F405C09F7059F0811163
:102C900009C016C19F7031F0D80115969C91907FA4
:102CA00009F40EC1805E883008F40AC1C8010E9490
:102CB0003714FB2C05C1FC2CCC2009F401C18091F8
:102CC00018028160809318025BC0E21206C0D9121C
:102CD00004C0C11002C0F801A0C0DD86EE868D855B
:102CE0009E850E94A914882379F1CC2069F1209156
:102CF0001802822F82958F7090E0029774F0809175
:102D000013029091140298878F8319869B868A8676
:102D10002C87CE0107960E94371486E0F801A3E1C4
:102D2000B2E001900D928A95E1F70E941C150E9475
:102D3000EE140DC0E21631F1DD86EE868D859E859E
:102D40000E94A91481112DC0C8010E943714FF24CC
:102D5000F394B6C03111EECF782D998A888A4D2D23
:102D60005E2D6C2D89890E94AE1483E192E00E9451
:102D7000371486E0D5011D928A95E9F70E94EE147A
:102D8000F12C9EC0D912D8CFC110D6CFF8018583BF
:102D9000C8010E94371486E0D5011D928A95E9F793
:102DA0008FC0CC2089F220911802822F82958F70DB
:102DB00090E002970CF4B1CF80911302909114022D
:102DC0009A8389831B829D828C822E83CE010196F9
:102DD000A2CF683C710508F047C0FC2CCC2009F458
:102DE000B3CFE21230C0D9122EC02091180220FDBC
:102DF00021C0822F82958F70482F50E041155105D8
:102E0000C9F0F80125834F30510541F08F5F982FAD
:102E10009295907F822F8F70892B8583C8010E94A5
:102E2000371486E0F801A3E1B2E001900D928A9593
:102E3000E1F744C086E0F801A3E1B2E001900D9211
:102E40008A95E1F73DC0DD86EE868D859E850E94E0
:102E5000A914811162CF80911802816080931802B9
:102E6000C8010E9437142CC0782D998A888A4D2D6C
:102E70005E2D6C2D89890E94AE1486E0D5011D92CD
:102E80008A95E9F71BC0CC2009F45ECFDD86EE867B
:102E90008D859E850E94A914F82E882309F454CFAD
:102EA00086E0F801A3E1B2E001900D928A95E1F786
:102EB00083E192E00E94B7100E941C150E94EE145C
:102EC0008F2D61960FB6F894DEBF0FBECDBFDF9198
:102ED000CF911F910F91FF90EF90DF90CF90BF9017
:102EE000AF909F908F9008951F93CF93DF93CDB7AE
:102EF000DEB72C970FB6F894DEBF0FBECDBF4F8361
:102F0000588769877A878B879C87CE0107960E94AE
:102F100088158823D1F09F8188852A853B85232BBE
:102F200031F08F3F31F481E09F3F19F403C081E01D
:102F300001C080E080FD47C04F81588569857A8552
:102F40008B859C850E94BD143EC086E0FE013796AD
:102F5000DE01119601900D928A95E1F7FF81E885D7
:102F60006A857B856115710531F0EF3F31F481E0B1
:102F7000FF3F19F403C081E001C080E080FD23C061
:102F80002091E20130E0C9010196877099274091B4
:102F9000E10150E084179507F1F1F983EA837D831D
:102FA0006C8396E0929FD001939FB00D1124AD5198
:102FB000BE4FFE01319601900D929A95E1F78093F4
:102FC000E2010E94CD1416E08091E1019091E201AE
:102FD000891771F1189FC00111248D519E4F0E94D5
:102FE0008815882329F1E091E1011E9FF001112449
:102FF000ED51FE4F408151816281738184819581C1
:103000000E94BD148091E10190E00196877099279C
:103010008093E101D9CF0E9481141092E2011092B5
:10302000E101E3E1F2E086E0DF011D928A95E9F734
:103030002C960FB6F894DEBF0FBECDBFDF91CF91B7
:103040001F910895EF92FF920F931F93CF93DF93F9
:103050008C01892B09F46CC0F12CEE24E394E80177
:103060002196F8018491843740F4843008F051C0EF
:10307000813081F0823019F15BC0853709F444C09A
:10308000A8F19CE7980F903708F052C08F770E9404
:103090006C1141C00E5F1F4FFE01849190E2980FAA
:1030A000983050F48770FE2D01C0FF0F8A95EAF723
:1030B0008F2F0E94AA1A14C00E94BD102DC00E5F4F
:1030C0001F4FFE01849190E2980F983060F4877052
:1030D000FE2D01C0FF0F8A95EAF78F2F0E94B01ACC
:1030E0000E94D51A19C00E946C1116C00E5F1F4FA6
:1030F000FE01C491CC2381F08FE99FE00197F1F7A5
:1031000000C00000C150F6CF0E5F1F4FFE01F490CB
:1031100003C00E94BD108E018F2D882309F49FCF1C
:10312000EFE9FFE03197F1F700C000008150F5CFE3
:10313000DF91CF911F910F91FF90EF900895089527
:1031400008950C94A0180C94A1180E94A3186093E1
:1031500054027093550280935602909357020C9438
:1031600067140C94A5180F931F93009154021091AB
:1031700055022091560230915702602B712B822B01
:10318000932B1F910F910C94A5180F931F930091EF
:10319000540210915502209156023091570260233B
:1031A0007123822393231F910F910C94A5180F93E1
:1031B0001F930091540210915502209156023091B4
:1031C000570260277127822793271F910F910C9434
:1031D000A5180C94A0180E94E918609350027093EF
:1031E000510280935202909353020C94671460E052
:1031F00070E0CB010C94EB180F931F9341E050E06B
:1032000060E070E08A019B0104C0000F111F221FC3
:10321000331F8A95D2F7C901B8011F910F910C9401
:10322000EB180F931F9341E050E060E070E004C0A2
:10323000440F551F661F771F8A95D2F78091500261
:1032400090915102A0915202B09153028A019B01C8
:10325000082B192B2A2B3B2BC901B8011F910F9169
:103260000C94EB180F931F9341E050E060E070E086
:1032700004C0440F551F661F771F8A95D2F74095EB
:103280005095609570958091500290915102A09157
:103290005202B09153028A019B01082319232A2369
:1032A0003B23C901B8011F910F910C94EB180F93A8
:1032B0001F9341E050E060E070E004C0440F551FF0
:1032C000661F771F8A95D2F7809150029091510224
:1032D000A0915202B09153028A019B01082719273D
:1032E0002A273B27C901B8011F910F910C94EB18B5
:1032F0000F931F930091500210915102209152029E
:1033000030915302602B712B822B932B1F910F91C5
:103310000C94EB180F931F930091500210915102DF
:103320002091520230915302602371238223932310
:103330001F910F910C94EB180F931F930091500263
:10334000109151022091520230915302602771274F
:10335000822793271F910F910C94EB18089527E073
:10336000929F800D1124E82FE695E695E6958770EB
:1033700051E001C0550F8A95EAF785E0E89FF0011A
:103380001124E75EFD4F20E030E070E04081CB018A
:10339000022E02C0969587950A94E2F78170819576
:1033A00084278523842781932F5F3F4F2530310564
:1033B00069F7089527E0929F800D1124682F669584
:1033C00066956695982F977085E0689FB0011124E7
:1033D00040E050E080E0FB01E40FF51FE75EFD4FA9
:1033E000208130E0092E02C0369527950A94E2F735
:1033F00021703327042E01C0220F0A94EAF7822B92
:103400004F5F5F4F4530510531F70895BF92CF921E
:10341000DF92EF92FF920F931F93CF93DF938C0174
:10342000C0905002D0905102E0905202F0905302AE
:103430008091540290915502A0915602B09157028A
:10344000C82AD92AEA2AFB2ACFE1D0E0D701C6014F
:103450000C2E04C0B695A795979587950A94D2F738
:1034600080FD04C0219790F7B12C07C0BC2EB80195
:103470008C2F0E9440030197A9F38B2DDF91CF91F0
:103480001F910F91FF90EF90DF90CF90BF90089524
:10349000CF93DF93EC010E94061ABE010E94400305
:1034A000DF91CF9108951F93CF93DF93EB0190911C
:1034B000E001992321F0CB010E94481A13C0882310
:1034C00049F0CB010E94061A182F682FCE010E94E6
:1034D000AF1904C0CB010E94DA19182FBE01812F49
:1034E0000E944003DF91CF911F910895809158026F
:1034F00085958595859508958091580287700895E2
:1035000090915802977081E009F480E008958091CD
:103510006402089590916402892B80936402089557
:10352000809590916402892380936402089510929B
:103530006402089590916302892B80936302089539
:10354000809590916302892380936302089510927D
:103550006302089590916202892B8093620208951C
:10356000809590916202892380936202089510925F
:103570006202089580915902089508950C94BD1A2D
:103580000C94BE1A90915902981721F08093590219
:103590000C94C01A089580915902882329F0109242
:1035A000590280E00C94C01A0895E0910F01F09147
:1035B0001001809164028083E0910F01F09110016D
:1035C000908180916302892B8083E0910F01F091BB
:1035D0001001908180916202892B80838091590231
:1035E000882381F0E0910F01F09110019081892BE7
:1035F000808380910F01909110010E94E81B81113E
:103600000E94CB1A80910F01909110010C945F0FD2
:103610000C94BD1A98E0899F90011124262B2093C9
:1036200058020E94111980915802859585958595BB
:103630000C94081B1092580280E00C94081B2091F7
:1036400058028095822380935802982F977079F4BE
:1036500030E0482F082E000C550B2417350739F0A1
:103660008595859585950E9432190C941A1B0895AD
:1036700080E0089580E090E00E94762421E08B3E77
:103680009E4F09F020E0822F089582E090E00C9494
:103690006E2483E090E00C946E24CF9384E090E05D
:1036A0000E946E24C82F81E290E00E946E242C2F8D
:1036B00030E0A901582BCA01CF910895CF93C92FAB
:1036C000682F84E090E00E947C246C2F81E290E0DF
:1036D000CF910C947C24AB01BC018FE090E00C9462
:1036E0008E24AB01BC0183E190E00C948E2460E059
:1036F00070E0CB010C94711B60E070E0CB010E9484
:103700006B1B0C94771B6BEE7EEF80E090E00E94C9
:103710009A2460E082E090E00E947C2460E083E0F4
:1037200090E00E947C241092540210925502109254
:1037300056021092570260E084E090E00E947C24E0
:1037400060E081E290E00E947C2460E085E090E00F
:103750000E947C2460E086E090E00E947C246FEF71
:1037600087E090E00E947C2440E050E0BA0188E0CD
:1037700090E00E948E2460E08DE090E00E947C2426
:1037800040E050E0BA0188E190E00E948E2460E0C1
:1037900087E190E00E947C2440E050E0BA018CE197
:1037A00090E00E948E2460E080E290E00E947C2401
:1037B00040E050E0BA0188E190E00E948E240C9431
:1037C0007C1B0C94831B682F8EE090E00C947C246F
:1037D000FC01329697E080E0915029F0219122235C
:1037E000D9F38F5FF9CF0895662349F0FC01329633
:1037F00008962191621729F0E817F907D1F780E0C0
:10380000089581E008959C01FC0132969FEF80E0CD
:103810004191461789F09F3F19F4411101C0982F3B
:103820008F5F8630A9F79F3F39F0F901E90FF11D4D
:1038300097FDFA956283089508959C012A5F3F4F92
:10384000FC014281461301C0128201968217930740
:10385000B9F708950C94031C0C941D1C029626E0E5
:10386000FC0111922A95E9F7089508950C94351CEE
:103870000C94351CCF930E94381C0E9401060E94B4
:10388000361CC0E08C2F0E942F05811104C0CF5F31
:10389000CC30C1F701C081E0CF9108950C94351C64
:1038A0000C944E1C80919902843049F10E94501C66
:1038B00080E00E9418031092660220E488E190E004
:1038C0000FB6F894A895809360000FBE2093600017
:1038D00083B7817F846083BF83B7816083BF78941F
:1038E000889583B78E7F83BF0FB6F894A895809193
:1038F0006000886180936000109260000FBE0895A0
:103900000C94351C0E9481140E94530F0E941803CE
:103910000C94801C1F920F920FB60F9211248F935C
:103920009F93AF93BF9380916602811113C08091E2
:103930008B0290918C02A0918D02B0918E024196E3
:10394000A11DB11D80938B0290938C02A0938D02D8
:10395000B0938E02BF91AF919F918F910F900FBE48
:103960000F901F90189582E084BD93E095BD9AEF6B
:1039700097BD80936E0008952FB7F89480918B02C5
:1039800090918C02A0918D02B0918E022FBF08956C
:103990002FB7F89460918B0270918C0280918D0208
:1039A00090918E022FBF08959C014FB7F89480919B
:1039B0008B0290918C02A0918D02B0918E024FBF2C
:1039C000821B930B089578941F920F920FB60F925B
:1039D00011248F939F93AF93BF9380918B0290910B
:1039E0008C02A0918D02B0918E020196A11DB11D95
:1039F00080938B0290938C02A0938D02B0938E02E1
:103A0000BF91AF919F918F910F900FBE0F901F901C
:103A1000189510928F0210929002109291021092BB
:103A200092020895CF92DF92EF92FF926B017C0198
:103A30000E94C30681110EC00E94C81CC61AD70A74
:103A4000E80AF90AC0928F02D0929002E0929102A5
:103A5000F0929202FF90EF90DF90CF9008950F9335
:103A60001F930E94C306882321F01F910F910C948D
:103A7000C81C0E94C81C00918F02109190022091D6
:103A8000910230919202600F711F821F931F1F914C
:103A90000F91089587E797E79093010880930008B6
:103AA0009AE088E10FB6F894A895809360000FBE65
:103AB00090936000FFCF90939D0180939C010895A7
:103AC0000E943A1B811102C00E94E11B0E94451B0B
:103AD000809365020E944D1B909394028093930201
:103AE0000E94491B682F70E080E090E00E94B118AE
:103AF0006091500270915102809152029091530254
:103B00000C94E91880916F020895CF93DF9300D051
:103B10001F92CDB7DEB790919902943019F5898341
:103B20007B836A8382E08093E9008FEF9091E800C5
:103B3000815095FD06C095ED9A95F1F70000811131
:103B4000F5CF8091E80085FF0DC040E050E063E0D4
:103B500070E0CE0101960E94A21F8091E8008E774E
:103B60008093E8000F900F900F90DF91CF91089510
:103B7000BC0184E00C94851DBC0183E00C94851D80
:103B800022E02093E9002FEF3091E800215035FD2D
:103B900006C035ED3A95F1F700002111F5CF2091DF
:103BA000E80025FF0BC040E050E066E070E00E94B6
:103BB000A21F8091E8008E778093E8000895CF934C
:103BC000DF9321E02093E9002FEF3091E8002150AE
:103BD00035FD06C035ED3A95F1F700002111F5CF1E
:103BE0002091E80025FF14C0EC0140E050E068E0BF
:103BF00070E00E94A21F8091E8008E778093E80019
:103C000088E0FE01A7E6B2E001900D928A95E1F707
:103C1000DF91CF91089580919802811109C00E948F
:103C200033210E9490218091E20084608093E20021
:103C3000089510929802089508950895089542E015
:103C400061EC81E00E94AC2042E261EC82E00C94E5
:103C5000AC2080919B02833009F460C030F4813045
:103C600071F0823009F499C008958A3009F485C052
:103C70008B3009F46BC0893009F0A7C020C0809157
:103C80009A02813A09F0A1C08091E800877F809371
:103C9000E80080919E0290919F02892B21F468E0B8
:103CA00087E692E003C060E080E090E070E00E9470
:103CB000ED1F8091E8008B778093E8000895809154
:103CC0009A02813209F081C080919E0290919F02F8
:103CD000029708F07AC08091E800877F8093E8001F
:103CE0008091E80082FD05C0809199028111F8CF92
:103CF0006CC02091F3008091F20090E0922B02972B
:103D000029F48091F1008B7F813021F48091F100C2
:103D100080936F028091E8008B7753C080919A0264
:103D2000813A09F052C080919E0290919F02892BA6
:103D300009F04BC08091E800877F8093E800809174
:103D4000E80080FFFCCF80911B0136C080919A0271
:103D50008132D9F580919E0290919F02892BA9F51D
:103D60008091E800877F8093E8000E94E1208091A5
:103D70009C0280931B010C94811480919A028132E1
:103D800021F58091E800877F8093E8000E94E12080
:103D900080919D0280937002089580919A02813AE9
:103DA000A1F48091E800877F8093E8008091E8008B
:103DB00080FFFCCF809170028093F1008091E80039
:103DC0008E778093E8000C94E120089584B7877F74
:103DD00084BF0FB6F894A8958091600088618093A5
:103DE0006000109260000FBE90E080E80FB6F8947B
:103DF00080936100909361000FBE0E94CD0F0E94DE
:103E000033210E9490218091E20084608093E2003F
:103E100078940E9425240E94D70F81E191E00E94AE
:103E20004E0F809199028530A9F4809199028530D6
:103E300079F40E94521C809197028823B1F30E946A
:103E40003A1C882391F30E948C1F0E948114EDCFAD
:103E50000E94821C0E94E10F0E94C10F0E94C00FAD
:103E6000E0CF0C94331F292F332723303105C9F0BD
:103E700060F42130310581F02230310509F044C071
:103E80008BE390E026E333E043C021323105E1F0DB
:103E90002232310549F138C082E190E021E733E078
:103EA00037C099278130910549F028F0029761F5D4
:103EB000E4EFF2E005C0E2E3F3E002C0E2E2F3E0A7
:103EC000849190E09F0124C06115710541F061303B
:103ED0007105D1F489E090E021E633E019C089E072
:103EE00090E028E433E014C06115710541F06130C1
:103EF000710551F48BE790E023E833E009C080E4DA
:103F000090E02EEF33E004C080E090E020E030E06D
:103F1000FA0131832083089580E189BD82E189BD62
:103F200009B400FEFDCF8091D8008F7D8093D8002A
:103F30008091E00082608093E0008091E00081FD4C
:103F4000FCCF0895CF92DF92EF92FF920F931F93D1
:103F5000CF93DF93EC018B017A010E940021811144
:103F600033C0E114F10439F0F70180819181081B1D
:103F7000190BC80FD91FC12CD12C0115110519F12E
:103F80008091E80085FD16C08091E8008E778093CF
:103F9000E800E114F10449F0F70180819181C80E35
:103FA000D91ED182C08285E00FC00E9400218823E3
:103FB00021F30AC089918093F10001501109FFEFAC
:103FC000CF1ADF0ADACF80E0DF91CF911F910F91F6
:103FD000FF90EF90DF90CF9008952091A002309154
:103FE000A1022617370748F06115710539F42091B1
:103FF000E8002E772093E80001C0B901FC0120E021
:104000006115710579F1809199028823F1F185306C
:10401000F1F18091E80083FD3CC08091E80082FDD1
:104020002EC08091E80080FFEBCF2091F3008091BB
:10403000F20090E0922B6115710551F088309105E6
:1040400038F421912093F100615071090196F3CF6A
:1040500021E0089709F020E08091E8008E778093B6
:10406000E800CECF2111CFCF0AC0809199028823DA
:1040700061F0853061F08091E80083FD0AC0809195
:10408000E80082FFF2CF80E0089582E0089583E0A7
:10409000089581E008952091A0023091A102261791
:1040A000370748F06115710539F42091E8002E7743
:1040B0002093E80001C0B901FC0120E06115710501
:1040C00091F180919902882309F440C0853009F468
:1040D0003FC08091E80083FD3DC08091E80082FDF3
:1040E0002FC08091E80080FFE9CF2091F3008091FC
:1040F000F20090E0922B6115710559F0883091051E
:1041000040F424912093F100319661507109019699
:10411000F2CF21E0089709F020E08091E8008E7747
:104120008093E800CBCF2111CCCF0AC080919902B7
:10413000882361F0853061F08091E80083FD0AC03A
:104140008091E80082FFF2CF80E0089582E0089538
:1041500083E0089581E00895982F973068F5909353
:10416000E900981739F07091EC002091ED00509122
:10417000F00003C0242F762F50E021FD02C09F5F86
:10418000ECCF3091EB003E7F3093EB003091ED00AF
:104190003D7F3093ED003091EB0031603093EB00C8
:1041A0007093EC002093ED005093F0002091EE000E
:1041B00027FDE5CF80E008958F708093E90081E0CE
:1041C000089580919A0287FF11C08091E80082FDD6
:1041D00005C0809199028111F8CF11C08091E8004B
:1041E0008B770BC080919902882349F08091E80079
:1041F00080FFF8CF8091E8008E778093E8000895E3
:104200002091E4003091E50095E64091EC00842F88
:10421000817040FF23C08091E80080FD1DC0809127
:104220009902882399F0853099F08091EB0085FD03
:1042300011C04091E4005091E5002417350729F39F
:10424000915011F09A01E1CF84E0089582E0089541
:1042500083E0089581E0089580E008954091E800AA
:1042600042FFDDCF08950E94A1210E94A921E0EE26
:10427000F0E0808181608083E8EDF0E080818F77DD
:10428000808319BCA7EDB0E08C918E7F8C938081E8
:104290008F7E80831092980208950F931F93CF937F
:1042A000DF930E94A1210E94A921C8EDD0E088815E
:1042B0008F77888388818068888388818F7D8883D1
:1042C00019BC1092990210929502109297021092C6
:1042D000960200EE10E0F80180818B7F8083888158
:1042E0008160888342E060E080E00E94AC20E1EEE3
:1042F000F0E080818E7F8083E2EEF0E0808181605B
:104300008083808188608083F80180818E7F8083B4
:10431000888180618883DF91CF911F910F910895EB
:10432000E8EDF0E080818F7E8083E7EDF0E0808132
:104330008160808384E082BF81E0809398020C9446
:104340004D21E8EDF0E080818E7F80831092E200C5
:1043500008951092DA001092E10008951F920F92D2
:104360000FB60F9211242F933F934F935F936F9348
:104370007F938F939F93AF93BF93EF93FF9380911E
:10438000E10082FF0BC08091E20082FF07C08091B4
:10439000E1008B7F8093E1000E9424248091DA0069
:1043A00080FF1FC08091D80080FF1BC08091DA0081
:1043B0008E7F8093DA008091D90080FF0DC080E16C
:1043C00089BD82E189BD09B400FEFDCF81E0809303
:1043D00099020E940B1E05C019BC109299020E94FE
:1043E000191E8091E10080FF19C08091E20080FFDA
:1043F00015C08091E2008E7F8093E2008091E20000
:1044000080618093E2008091D80080628093D80020
:1044100019BC85E0809399020E941D1E8091E100E5
:1044200084FF30C08091E20084FF2CC080E189BD10
:1044300082E189BD09B400FEFDCF8091D8008F7D57
:104440008093D8008091E1008F7E8093E10080917D
:10445000E2008F7E8093E2008091E2008160809391
:10446000E20080919502882311F084E007C08091DA
:10447000E30087FD02C081E001C083E080939902E0
:104480000E941E1E8091E10083FF29C08091E200FE
:1044900083FF25C08091E100877F8093E10082E067
:1044A00080939902109295028091E1008E7F809313
:1044B000E1008091E2008E7F8093E2008091E20033
:1044C00080618093E20042E060E080E00E94AC20E6
:1044D0008091F00088608093F0000E941C1EFF9184
:1044E000EF91BF91AF919F918F917F916F915F916C
:1044F0004F913F912F910F900FBE0F901F901895E5
:104500001F920F920FB60F9211242F933F934F9348
:104510005F936F937F938F939F93AF93BF93CF934B
:10452000DF93EF93FF93C091E900CF708091EC008F
:10453000D82FD17080FDD0E81092E9008091F00072
:10454000877F8093F00078940E94C4221092E90043
:104550008091F00088608093F000CD2BCF70C093E5
:10456000E900FF91EF91DF91CF91BF91AF919F91C2
:104570008F917F916F915F914F913F912F910F900C
:104580000FBE0F901F9018951F93CF93DF93CDB759
:10459000DEB7AA970FB6F894DEBF0FBECDBFEAE92B
:1045A000F2E08091F100819322E0E23AF207C9F74C
:1045B0000E94291E8091E80083FF2EC180919A02FB
:1045C00090919B02492F50E04A30510508F024C1D8
:1045D000FA01EC58FF4F0C945424803821F08238B3
:1045E00009F01AC108C08091960290919702992310
:1045F00089F082600FC080919E028F70873008F032
:104600000BC18093E9008091EB0085FB882780F93E
:104610001092E9009091E800977F9093E8008093D2
:10462000F1001092F100D1C0282F2D7F09F0F4C0C5
:10463000882319F0823061F0EFC080919C028130B4
:1046400009F0EAC0933009F080E0809397022EC011
:1046500080919C0281112AC080919E028F702FEF61
:10466000280F263008F0D8C08093E9002091EB0095
:1046700020FF1CC0933021F48091EB00806214C0B5
:104680009091EB0090619093EB0021E030E0A90164
:1046900002C0440F551F8A95E2F74093EA0010923A
:1046A000EA008091EB0088608093EB001092E900B3
:1046B0008091E800877F8093E8000E94E120ACC0F1
:1046C0008111AAC010919C021F778091E30080782D
:1046D000812B8093E3008091E800877F8093E8003E
:1046E0000E94E1208091E80080FFFCCF8091E300F0
:1046F00080688093E300111102C082E001C083E072
:104700008093990289C08058823008F085C08091DA
:104710009C0290919D028C3D53E0950779F583E0D2
:104720008A838AE289834FB7F894DE01139620E0EA
:104730003EE051E2E32FF0E050935700E49120FF78
:1047400003C0E295EF703F5FEF708E2F90E0EA308C
:1047500010F0C79601C0C0968D939D932F5F2431B2
:1047600049F74FBF8091E800877F8093E8006AE2B5
:1047700070E0CE0101960E94ED1F16C060919E026E
:1047800070919F02AE014F5F5F4F0E94311FBC01CD
:10479000892B09F441C09091E800977F9093E8003D
:1047A00089819A810E944B208091E8008B778093C9
:1047B000E80032C0803881F58091E800877F8093DF
:1047C000E800809195028093F1008091E8008E7757
:1047D00072CF811121C080919C0290919D029927F6
:1047E0000297D4F48091E800877F8093E80080915D
:1047F0009C02809395020E94E12080919502811194
:1048000006C08091E30087FD02C081E001C084E022
:10481000809399020E941F1E8091E80083FF0AC0C6
:104820008091E800877F8093E8008091EB008062B0
:104830008093EB00AA960FB6F894DEBF0FBECDBFF3
:10484000DF91CF911F9108950895CF9380919902A0
:104850008823A1F0C091E900CF709091EC00892FDE
:10486000817090FD80E8C82B1092E9008091E800EB
:1048700083FD0E94C422CF70C093E900CF910895B8
:1048800097FB072E16F4009407D077FD09D00E94FD
:104890005A2407FC05D03EF4909581959F4F0895CA
:1048A000709561957F4F0895EE0FFF1F0590F4916D
:1048B000E02D0994AA1BBB1B51E107C0AA1FBB1F17
:1048C000A617B70710F0A61BB70B881F991F5A959C
:1048D000A9F780959095BC01CD010895F999FECF77
:1048E00092BD81BDF89A992780B50895A8E1B0E0FE
:1048F00042E050E00C94A224262FF999FECF92BDFD
:1049000081BDF89A019700B4021639F01FBA20BD94
:104910000FB6F894FA9AF99A0FBE08950396272FC6
:104920000E947D240E947C24252F0E947D24242F18
:104930000C947D240196272F0E947D240C947C24C6
:10494000DC01CB01FC01F999FECF06C0F2BDE1BD4F
:10495000F89A319600B40D9241505040B8F708953E
:04496000F894FFCFF9
:10496400012808643C0714B80104B90106BD015AC2
:1049740002821DDF1DC01DBC1DB81D01E200E9003F
:10498400EA00B500B600B700CD008301CC008A016F
:104994009201940121022302240225022602270205
:1049A4002A02B300B4006F007000818283F5F6F729
:1049B40031333236946697C6343500000000000067
:1049C40001020304050607080900E200E900EA0001
:1049D400B500B600B700CD008301CC008A01920176
:1049E40094012102230224022502260227022A021C
:0C49F400B300B4006F00700081828300EB
:00000001FF
